{
  "_format": "hh-sol-artifact-1",
  "contractName": "Casino",
  "sourceName": "contracts/Casino.sol",
  "abi": [
    {
      "inputs": [],
      "stateMutability": "payable",
      "type": "constructor"
    },
    {
      "anonymous": false,
      "inputs": [
        {
          "indexed": true,
          "internalType": "address",
          "name": "player",
          "type": "address"
        },
        {
          "indexed": false,
          "internalType": "uint256",
          "name": "amount",
          "type": "uint256"
        },
        {
          "indexed": false,
          "internalType": "enum Casino.RedBlack",
          "name": "bet",
          "type": "uint8"
        },
        {
          "indexed": false,
          "internalType": "uint256",
          "name": "blockNumber",
          "type": "uint256"
        }
      ],
      "name": "BetMade",
      "type": "event"
    },
    {
      "anonymous": false,
      "inputs": [
        {
          "indexed": true,
          "internalType": "address",
          "name": "player",
          "type": "address"
        },
        {
          "indexed": false,
          "internalType": "uint256",
          "name": "betAmount",
          "type": "uint256"
        },
        {
          "indexed": false,
          "internalType": "bool",
          "name": "won",
          "type": "bool"
        }
      ],
      "name": "GameResult",
      "type": "event"
    },
    {
      "inputs": [],
      "name": "getContractFunds",
      "outputs": [
        {
          "internalType": "uint256",
          "name": "",
          "type": "uint256"
        }
      ],
      "stateMutability": "view",
      "type": "function"
    },
    {
      "inputs": [],
      "name": "getHello",
      "outputs": [
        {
          "internalType": "string",
          "name": "",
          "type": "string"
        }
      ],
      "stateMutability": "pure",
      "type": "function"
    },
    {
      "inputs": [],
      "name": "getRougeNoirPayout",
      "outputs": [
        {
          "internalType": "bool",
          "name": "",
          "type": "bool"
        }
      ],
      "stateMutability": "nonpayable",
      "type": "function"
    },
    {
      "inputs": [],
      "name": "getRougeNoirResult",
      "outputs": [
        {
          "internalType": "bool",
          "name": "",
          "type": "bool"
        }
      ],
      "stateMutability": "view",
      "type": "function"
    },
    {
      "inputs": [
        {
          "internalType": "address",
          "name": "",
          "type": "address"
        }
      ],
      "name": "rougenoirAmount",
      "outputs": [
        {
          "internalType": "uint256",
          "name": "",
          "type": "uint256"
        }
      ],
      "stateMutability": "view",
      "type": "function"
    },
    {
      "inputs": [
        {
          "internalType": "address",
          "name": "",
          "type": "address"
        }
      ],
      "name": "rougenoirBet",
      "outputs": [
        {
          "internalType": "enum Casino.RedBlack",
          "name": "",
          "type": "uint8"
        }
      ],
      "stateMutability": "view",
      "type": "function"
    },
    {
      "inputs": [
        {
          "internalType": "address",
          "name": "",
          "type": "address"
        }
      ],
      "name": "rougenoirBlockHeight",
      "outputs": [
        {
          "internalType": "uint256",
          "name": "",
          "type": "uint256"
        }
      ],
      "stateMutability": "view",
      "type": "function"
    },
    {
      "inputs": [
        {
          "internalType": "uint8",
          "name": "bet",
          "type": "uint8"
        }
      ],
      "name": "setRougeNoir",
      "outputs": [
        {
          "internalType": "bool",
          "name": "",
          "type": "bool"
        }
      ],
      "stateMutability": "payable",
      "type": "function"
    }
  ],
  "bytecode": "0x6080604052610fb4806100136000396000f3fe60806040526004361061007b5760003560e01c8063685da9431161004e578063685da943146101625780638da9b7721461018d578063d14b76e6146101b8578063e0cb8a81146101e85761007b565b80630467f4cd14610080578063070b9160146100bd5780635132d35d146100fa57806362687ca414610137575b600080fd5b34801561008c57600080fd5b506100a760048036038101906100a29190610a09565b610213565b6040516100b49190610a4f565b60405180910390f35b3480156100c957600080fd5b506100e460048036038101906100df9190610a09565b61022b565b6040516100f19190610a4f565b60405180910390f35b34801561010657600080fd5b50610121600480360381019061011c9190610a09565b610243565b60405161012e9190610ae1565b60405180910390f35b34801561014357600080fd5b5061014c610263565b6040516101599190610b17565b60405180910390f35b34801561016e57600080fd5b50610177610550565b6040516101849190610b17565b60405180910390f35b34801561019957600080fd5b506101a26106d7565b6040516101af9190610bcb565b60405180910390f35b6101d260048036038101906101cd9190610c26565b610714565b6040516101df9190610b17565b60405180910390f35b3480156101f457600080fd5b506101fd610913565b60405161020a9190610a4f565b60405180910390f35b60026020528060005260406000206000915090505481565b60006020528060005260406000206000915090505481565b60016020528060005260406000206000915054906101000a900460ff1681565b60008060001b600260003373ffffffffffffffffffffffffffffffffffffffff1673ffffffffffffffffffffffffffffffffffffffff168152602001908152602001600020544014156102eb576040517f08c379a00000000000000000000000000000000000000000000000000000000081526004016102e290610c9f565b60405180910390fd5b6000600260003373ffffffffffffffffffffffffffffffffffffffff1673ffffffffffffffffffffffffffffffffffffffff168152602001908152602001600020544060001c90506000600160003373ffffffffffffffffffffffffffffffffffffffff1673ffffffffffffffffffffffffffffffffffffffff16815260200190815260200160002060009054906101000a900460ff16905060006002836103939190610cee565b60018111156103a5576103a4610a6a565b5b90508160018111156103ba576103b9610a6a565b5b8160018111156103cd576103cc610a6a565b5b14156104ec57600060026000803373ffffffffffffffffffffffffffffffffffffffff1673ffffffffffffffffffffffffffffffffffffffff168152602001908152602001600020546104209190610d4e565b90503373ffffffffffffffffffffffffffffffffffffffff167f64d043e0fee49baf4067df1dd73ce8d898ab4ed6d4a9ad04e244ea107aadad4a82600160405161046b929190610da8565b60405180910390a260003373ffffffffffffffffffffffffffffffffffffffff168260405161049990610e02565b60006040518083038185875af1925050503d80600081146104d6576040519150601f19603f3d011682016040523d82523d6000602084013e6104db565b606091505b50509050809550505050505061054d565b3373ffffffffffffffffffffffffffffffffffffffff167f64d043e0fee49baf4067df1dd73ce8d898ab4ed6d4a9ad04e244ea107aadad4a600080604051610535929190610e5c565b60405180910390a261054561091b565b600093505050505b90565b60008060001b600260003373ffffffffffffffffffffffffffffffffffffffff1673ffffffffffffffffffffffffffffffffffffffff168152602001908152602001600020544014156105d8576040517f08c379a00000000000000000000000000000000000000000000000000000000081526004016105cf90610c9f565b60405180910390fd5b6000600260003373ffffffffffffffffffffffffffffffffffffffff1673ffffffffffffffffffffffffffffffffffffffff168152602001908152602001600020544060001c90506000600160003373ffffffffffffffffffffffffffffffffffffffff1673ffffffffffffffffffffffffffffffffffffffff16815260200190815260200160002060009054906101000a900460ff16905060006002836106809190610cee565b600181111561069257610691610a6a565b5b90508160018111156106a7576106a6610a6a565b5b8160018111156106ba576106b9610a6a565b5b14156106cc57600193505050506106d4565b600093505050505b90565b60606040518060400160405280600581526020017f48656c6c6f000000000000000000000000000000000000000000000000000000815250905090565b600080600260003373ffffffffffffffffffffffffffffffffffffffff1673ffffffffffffffffffffffffffffffffffffffff1681526020019081526020016000205414610797576040517f08c379a000000000000000000000000000000000000000000000000000000000815260040161078e90610ed1565b60405180910390fd5b60008260ff1660018111156107af576107ae610a6a565b5b90506002436107be9190610ef1565b600260003373ffffffffffffffffffffffffffffffffffffffff1673ffffffffffffffffffffffffffffffffffffffff16815260200190815260200160002081905550346000803373ffffffffffffffffffffffffffffffffffffffff1673ffffffffffffffffffffffffffffffffffffffff1681526020019081526020016000208190555080600160003373ffffffffffffffffffffffffffffffffffffffff1673ffffffffffffffffffffffffffffffffffffffff16815260200190815260200160002060006101000a81548160ff021916908360018111156108a6576108a5610a6a565b5b02179055503373ffffffffffffffffffffffffffffffffffffffff167f193dbeea5f5bb3682cb4ae88aa817624a10759712582eb2b00e38b54061de55134836002436108f29190610ef1565b60405161090193929190610f47565b60405180910390a26001915050919050565b600047905090565b60008060003373ffffffffffffffffffffffffffffffffffffffff1673ffffffffffffffffffffffffffffffffffffffff168152602001908152602001600020819055506000600260003373ffffffffffffffffffffffffffffffffffffffff1673ffffffffffffffffffffffffffffffffffffffff16815260200190815260200160002081905550565b600080fd5b600073ffffffffffffffffffffffffffffffffffffffff82169050919050565b60006109d6826109ab565b9050919050565b6109e6816109cb565b81146109f157600080fd5b50565b600081359050610a03816109dd565b92915050565b600060208284031215610a1f57610a1e6109a6565b5b6000610a2d848285016109f4565b91505092915050565b6000819050919050565b610a4981610a36565b82525050565b6000602082019050610a646000830184610a40565b92915050565b7f4e487b7100000000000000000000000000000000000000000000000000000000600052602160045260246000fd5b60028110610aaa57610aa9610a6a565b5b50565b6000819050610abb82610a99565b919050565b6000610acb82610aad565b9050919050565b610adb81610ac0565b82525050565b6000602082019050610af66000830184610ad2565b92915050565b60008115159050919050565b610b1181610afc565b82525050565b6000602082019050610b2c6000830184610b08565b92915050565b600081519050919050565b600082825260208201905092915050565b60005b83811015610b6c578082015181840152602081019050610b51565b83811115610b7b576000848401525b50505050565b6000601f19601f8301169050919050565b6000610b9d82610b32565b610ba78185610b3d565b9350610bb7818560208601610b4e565b610bc081610b81565b840191505092915050565b60006020820190508181036000830152610be58184610b92565b905092915050565b600060ff82169050919050565b610c0381610bed565b8114610c0e57600080fd5b50565b600081359050610c2081610bfa565b92915050565b600060208284031215610c3c57610c3b6109a6565b5b6000610c4a84828501610c11565b91505092915050565b7f506c65617365206d616b65206120626574206669727374000000000000000000600082015250565b6000610c89601783610b3d565b9150610c9482610c53565b602082019050919050565b60006020820190508181036000830152610cb881610c7c565b9050919050565b7f4e487b7100000000000000000000000000000000000000000000000000000000600052601260045260246000fd5b6000610cf982610a36565b9150610d0483610a36565b925082610d1457610d13610cbf565b5b828206905092915050565b7f4e487b7100000000000000000000000000000000000000000000000000000000600052601160045260246000fd5b6000610d5982610a36565b9150610d6483610a36565b9250817fffffffffffffffffffffffffffffffffffffffffffffffffffffffffffffffff0483118215151615610d9d57610d9c610d1f565b5b828202905092915050565b6000604082019050610dbd6000830185610a40565b610dca6020830184610b08565b9392505050565b600081905092915050565b50565b6000610dec600083610dd1565b9150610df782610ddc565b600082019050919050565b6000610e0d82610ddf565b9150819050919050565b6000819050919050565b6000819050919050565b6000610e46610e41610e3c84610e17565b610e21565b610a36565b9050919050565b610e5681610e2b565b82525050565b6000604082019050610e716000830185610e4d565b610e7e6020830184610b08565b9392505050565b7f46696e69736820796f75722072756e6e696e672067616d652066697273742100600082015250565b6000610ebb601f83610b3d565b9150610ec682610e85565b602082019050919050565b60006020820190508181036000830152610eea81610eae565b9050919050565b6000610efc82610a36565b9150610f0783610a36565b9250827fffffffffffffffffffffffffffffffffffffffffffffffffffffffffffffffff03821115610f3c57610f3b610d1f565b5b828201905092915050565b6000606082019050610f5c6000830186610a40565b610f696020830185610ad2565b610f766040830184610a40565b94935050505056fea26469706673582212206216bdade79bb24d0e69411e424a0f56cb17bd9fdd7abc65a3cfa6f98b7e34bc64736f6c63430008090033",
  "linkReferences": {},
  "deployedLinkReferences": {}
}