{
  "_format": "hh-sol-artifact-1",
  "contractName": "Casino",
  "sourceName": "contracts/Casino.sol",
  "abi": [
    {
      "inputs": [],
      "stateMutability": "payable",
      "type": "constructor"
    },
    {
      "anonymous": false,
      "inputs": [
        {
          "indexed": true,
          "internalType": "address",
          "name": "player",
          "type": "address"
        },
        {
          "indexed": false,
          "internalType": "uint256",
          "name": "amount",
          "type": "uint256"
        },
        {
          "indexed": false,
          "internalType": "enum Casino.RedBlack",
          "name": "bet",
          "type": "uint8"
        },
        {
          "indexed": false,
          "internalType": "uint256",
          "name": "blockNumber",
          "type": "uint256"
        }
      ],
      "name": "BetMade",
      "type": "event"
    },
    {
      "anonymous": false,
      "inputs": [
        {
          "indexed": true,
          "internalType": "address",
          "name": "player",
          "type": "address"
        },
        {
          "indexed": false,
          "internalType": "uint256",
          "name": "betAmount",
          "type": "uint256"
        },
        {
          "indexed": false,
          "internalType": "bool",
          "name": "won",
          "type": "bool"
        }
      ],
      "name": "GameResult",
      "type": "event"
    },
    {
      "inputs": [],
      "name": "getContractFunds",
      "outputs": [
        {
          "internalType": "uint256",
          "name": "",
          "type": "uint256"
        }
      ],
      "stateMutability": "view",
      "type": "function"
    },
    {
      "inputs": [],
      "name": "getHello",
      "outputs": [
        {
          "internalType": "string",
          "name": "",
          "type": "string"
        }
      ],
      "stateMutability": "pure",
      "type": "function"
    },
    {
      "inputs": [],
      "name": "getRougeNoirResult",
      "outputs": [
        {
          "internalType": "bool",
          "name": "",
          "type": "bool"
        }
      ],
      "stateMutability": "nonpayable",
      "type": "function"
    },
    {
      "inputs": [
        {
          "internalType": "address",
          "name": "",
          "type": "address"
        }
      ],
      "name": "rougenoirAmount",
      "outputs": [
        {
          "internalType": "uint256",
          "name": "",
          "type": "uint256"
        }
      ],
      "stateMutability": "view",
      "type": "function"
    },
    {
      "inputs": [
        {
          "internalType": "address",
          "name": "",
          "type": "address"
        }
      ],
      "name": "rougenoirBet",
      "outputs": [
        {
          "internalType": "enum Casino.RedBlack",
          "name": "",
          "type": "uint8"
        }
      ],
      "stateMutability": "view",
      "type": "function"
    },
    {
      "inputs": [
        {
          "internalType": "address",
          "name": "",
          "type": "address"
        }
      ],
      "name": "rougenoirBlockHeight",
      "outputs": [
        {
          "internalType": "uint256",
          "name": "",
          "type": "uint256"
        }
      ],
      "stateMutability": "view",
      "type": "function"
    },
    {
      "inputs": [
        {
          "internalType": "uint8",
          "name": "bet",
          "type": "uint8"
        }
      ],
      "name": "setRougeNoir",
      "outputs": [
        {
          "internalType": "bool",
          "name": "",
          "type": "bool"
        }
      ],
      "stateMutability": "payable",
      "type": "function"
    }
  ],
  "bytecode": "0x6080604052610f35806100136000396000f3fe6080604052600436106100705760003560e01c8063685da9431161004e578063685da9431461012c5780638da9b77214610157578063d14b76e614610182578063e0cb8a81146101b257610070565b80630467f4cd14610075578063070b9160146100b25780635132d35d146100ef575b600080fd5b34801561008157600080fd5b5061009c6004803603810190610097919061098a565b6101dd565b6040516100a991906109d0565b60405180910390f35b3480156100be57600080fd5b506100d960048036038101906100d4919061098a565b6101f5565b6040516100e691906109d0565b60405180910390f35b3480156100fb57600080fd5b506101166004803603810190610111919061098a565b61020d565b6040516101239190610a62565b60405180910390f35b34801561013857600080fd5b5061014161022d565b60405161014e9190610a98565b60405180910390f35b34801561016357600080fd5b5061016c610596565b6040516101799190610b4c565b60405180910390f35b61019c60048036038101906101979190610ba7565b6105d3565b6040516101a99190610a98565b60405180910390f35b3480156101be57600080fd5b506101c76107d2565b6040516101d491906109d0565b60405180910390f35b60026020528060005260406000206000915090505481565b60006020528060005260406000206000915090505481565b60016020528060005260406000206000915054906101000a900460ff1681565b60008060001b600260003373ffffffffffffffffffffffffffffffffffffffff1673ffffffffffffffffffffffffffffffffffffffff168152602001908152602001600020544014156102b5576040517f08c379a00000000000000000000000000000000000000000000000000000000081526004016102ac90610c20565b60405180910390fd5b6000600260003373ffffffffffffffffffffffffffffffffffffffff1673ffffffffffffffffffffffffffffffffffffffff168152602001908152602001600020544060001c90506000600160003373ffffffffffffffffffffffffffffffffffffffff1673ffffffffffffffffffffffffffffffffffffffff16815260200190815260200160002060009054906101000a900460ff169050600060028361035d9190610c6f565b600181111561036f5761036e6109eb565b5b9050816001811115610384576103836109eb565b5b816001811115610397576103966109eb565b5b14156104f4576103db6040518060400160405280600a81526020017f706c6179657220776f6e000000000000000000000000000000000000000000008152506107da565b600060026000803373ffffffffffffffffffffffffffffffffffffffff1673ffffffffffffffffffffffffffffffffffffffff168152602001908152602001600020546104289190610ccf565b90503373ffffffffffffffffffffffffffffffffffffffff167f64d043e0fee49baf4067df1dd73ce8d898ab4ed6d4a9ad04e244ea107aadad4a826001604051610473929190610d29565b60405180910390a260003373ffffffffffffffffffffffffffffffffffffffff16826040516104a190610d83565b60006040518083038185875af1925050503d80600081146104de576040519150601f19603f3d011682016040523d82523d6000602084013e6104e3565b606091505b505090508095505050505050610593565b6105326040518060400160405280600b81526020017f706c61796572206c6f73740000000000000000000000000000000000000000008152506107da565b3373ffffffffffffffffffffffffffffffffffffffff167f64d043e0fee49baf4067df1dd73ce8d898ab4ed6d4a9ad04e244ea107aadad4a60008060405161057b929190610ddd565b60405180910390a261058b610873565b600093505050505b90565b60606040518060400160405280600581526020017f48656c6c6f000000000000000000000000000000000000000000000000000000815250905090565b600080600260003373ffffffffffffffffffffffffffffffffffffffff1673ffffffffffffffffffffffffffffffffffffffff1681526020019081526020016000205414610656576040517f08c379a000000000000000000000000000000000000000000000000000000000815260040161064d90610e52565b60405180910390fd5b60008260ff16600181111561066e5761066d6109eb565b5b905060024361067d9190610e72565b600260003373ffffffffffffffffffffffffffffffffffffffff1673ffffffffffffffffffffffffffffffffffffffff16815260200190815260200160002081905550346000803373ffffffffffffffffffffffffffffffffffffffff1673ffffffffffffffffffffffffffffffffffffffff1681526020019081526020016000208190555080600160003373ffffffffffffffffffffffffffffffffffffffff1673ffffffffffffffffffffffffffffffffffffffff16815260200190815260200160002060006101000a81548160ff02191690836001811115610765576107646109eb565b5b02179055503373ffffffffffffffffffffffffffffffffffffffff167f193dbeea5f5bb3682cb4ae88aa817624a10759712582eb2b00e38b54061de55134836002436107b19190610e72565b6040516107c093929190610ec8565b60405180910390a26001915050919050565b600047905090565b610870816040516024016107ee9190610b4c565b6040516020818303038152906040527f41304fac000000000000000000000000000000000000000000000000000000007bffffffffffffffffffffffffffffffffffffffffffffffffffffffff19166020820180517bffffffffffffffffffffffffffffffffffffffffffffffffffffffff83818316178352505050506108fe565b50565b60008060003373ffffffffffffffffffffffffffffffffffffffff1673ffffffffffffffffffffffffffffffffffffffff168152602001908152602001600020819055506000600260003373ffffffffffffffffffffffffffffffffffffffff1673ffffffffffffffffffffffffffffffffffffffff16815260200190815260200160002081905550565b60008151905060006a636f6e736f6c652e6c6f679050602083016000808483855afa5050505050565b600080fd5b600073ffffffffffffffffffffffffffffffffffffffff82169050919050565b60006109578261092c565b9050919050565b6109678161094c565b811461097257600080fd5b50565b6000813590506109848161095e565b92915050565b6000602082840312156109a05761099f610927565b5b60006109ae84828501610975565b91505092915050565b6000819050919050565b6109ca816109b7565b82525050565b60006020820190506109e560008301846109c1565b92915050565b7f4e487b7100000000000000000000000000000000000000000000000000000000600052602160045260246000fd5b60028110610a2b57610a2a6109eb565b5b50565b6000819050610a3c82610a1a565b919050565b6000610a4c82610a2e565b9050919050565b610a5c81610a41565b82525050565b6000602082019050610a776000830184610a53565b92915050565b60008115159050919050565b610a9281610a7d565b82525050565b6000602082019050610aad6000830184610a89565b92915050565b600081519050919050565b600082825260208201905092915050565b60005b83811015610aed578082015181840152602081019050610ad2565b83811115610afc576000848401525b50505050565b6000601f19601f8301169050919050565b6000610b1e82610ab3565b610b288185610abe565b9350610b38818560208601610acf565b610b4181610b02565b840191505092915050565b60006020820190508181036000830152610b668184610b13565b905092915050565b600060ff82169050919050565b610b8481610b6e565b8114610b8f57600080fd5b50565b600081359050610ba181610b7b565b92915050565b600060208284031215610bbd57610bbc610927565b5b6000610bcb84828501610b92565b91505092915050565b7f506c65617365206d616b65206120626574206669727374000000000000000000600082015250565b6000610c0a601783610abe565b9150610c1582610bd4565b602082019050919050565b60006020820190508181036000830152610c3981610bfd565b9050919050565b7f4e487b7100000000000000000000000000000000000000000000000000000000600052601260045260246000fd5b6000610c7a826109b7565b9150610c85836109b7565b925082610c9557610c94610c40565b5b828206905092915050565b7f4e487b7100000000000000000000000000000000000000000000000000000000600052601160045260246000fd5b6000610cda826109b7565b9150610ce5836109b7565b9250817fffffffffffffffffffffffffffffffffffffffffffffffffffffffffffffffff0483118215151615610d1e57610d1d610ca0565b5b828202905092915050565b6000604082019050610d3e60008301856109c1565b610d4b6020830184610a89565b9392505050565b600081905092915050565b50565b6000610d6d600083610d52565b9150610d7882610d5d565b600082019050919050565b6000610d8e82610d60565b9150819050919050565b6000819050919050565b6000819050919050565b6000610dc7610dc2610dbd84610d98565b610da2565b6109b7565b9050919050565b610dd781610dac565b82525050565b6000604082019050610df26000830185610dce565b610dff6020830184610a89565b9392505050565b7f46696e69736820796f75722072756e6e696e672067616d652066697273742100600082015250565b6000610e3c601f83610abe565b9150610e4782610e06565b602082019050919050565b60006020820190508181036000830152610e6b81610e2f565b9050919050565b6000610e7d826109b7565b9150610e88836109b7565b9250827fffffffffffffffffffffffffffffffffffffffffffffffffffffffffffffffff03821115610ebd57610ebc610ca0565b5b828201905092915050565b6000606082019050610edd60008301866109c1565b610eea6020830185610a53565b610ef760408301846109c1565b94935050505056fea264697066735822122083e817a5e48b104ca674baa329fc759647632ad4234e936f417390006acb2a9664736f6c63430008090033",
  "linkReferences": {},
  "deployedLinkReferences": {}
}