{
  "_format": "hh-sol-artifact-1",
  "contractName": "Casino",
  "sourceName": "contracts/Casino.sol",
  "abi": [
    {
      "inputs": [],
      "stateMutability": "payable",
      "type": "constructor"
    },
    {
      "anonymous": false,
      "inputs": [
        {
          "indexed": true,
          "internalType": "address",
          "name": "player",
          "type": "address"
        },
        {
          "indexed": false,
          "internalType": "uint256",
          "name": "amount",
          "type": "uint256"
        },
        {
          "indexed": false,
          "internalType": "uint256",
          "name": "blockNumber",
          "type": "uint256"
        },
        {
          "indexed": false,
          "internalType": "string",
          "name": "gameType",
          "type": "string"
        }
      ],
      "name": "BetMade",
      "type": "event"
    },
    {
      "anonymous": false,
      "inputs": [
        {
          "indexed": true,
          "internalType": "address",
          "name": "player",
          "type": "address"
        },
        {
          "indexed": false,
          "internalType": "uint256",
          "name": "amount",
          "type": "uint256"
        }
      ],
      "name": "FundsAdded",
      "type": "event"
    },
    {
      "anonymous": false,
      "inputs": [
        {
          "indexed": true,
          "internalType": "address",
          "name": "player",
          "type": "address"
        },
        {
          "indexed": false,
          "internalType": "uint256",
          "name": "amount",
          "type": "uint256"
        }
      ],
      "name": "FundsWithdrawn",
      "type": "event"
    },
    {
      "anonymous": false,
      "inputs": [
        {
          "indexed": true,
          "internalType": "address",
          "name": "player",
          "type": "address"
        }
      ],
      "name": "GameReset",
      "type": "event"
    },
    {
      "anonymous": false,
      "inputs": [
        {
          "indexed": true,
          "internalType": "address",
          "name": "player",
          "type": "address"
        },
        {
          "indexed": false,
          "internalType": "uint256",
          "name": "betAmount",
          "type": "uint256"
        },
        {
          "indexed": false,
          "internalType": "bool",
          "name": "won",
          "type": "bool"
        }
      ],
      "name": "GameResult",
      "type": "event"
    },
    {
      "inputs": [],
      "name": "bank",
      "outputs": [
        {
          "internalType": "address payable",
          "name": "",
          "type": "address"
        }
      ],
      "stateMutability": "view",
      "type": "function"
    },
    {
      "inputs": [
        {
          "internalType": "uint256",
          "name": "",
          "type": "uint256"
        }
      ],
      "name": "colorValues",
      "outputs": [
        {
          "internalType": "enum Casino.RedBlack",
          "name": "",
          "type": "uint8"
        }
      ],
      "stateMutability": "view",
      "type": "function"
    },
    {
      "inputs": [],
      "name": "getContractFunds",
      "outputs": [
        {
          "internalType": "uint256",
          "name": "",
          "type": "uint256"
        }
      ],
      "stateMutability": "view",
      "type": "function"
    },
    {
      "inputs": [],
      "name": "getCurrentGameMode",
      "outputs": [
        {
          "internalType": "uint256",
          "name": "",
          "type": "uint256"
        }
      ],
      "stateMutability": "view",
      "type": "function"
    },
    {
      "inputs": [
        {
          "internalType": "uint8",
          "name": "gamemode",
          "type": "uint8"
        }
      ],
      "name": "getGameResult",
      "outputs": [
        {
          "internalType": "uint256",
          "name": "",
          "type": "uint256"
        }
      ],
      "stateMutability": "view",
      "type": "function"
    },
    {
      "inputs": [],
      "name": "getPleinPayout",
      "outputs": [],
      "stateMutability": "nonpayable",
      "type": "function"
    },
    {
      "inputs": [],
      "name": "getRedBlackPayout",
      "outputs": [],
      "stateMutability": "nonpayable",
      "type": "function"
    },
    {
      "inputs": [
        {
          "internalType": "address",
          "name": "",
          "type": "address"
        }
      ],
      "name": "playerBalance",
      "outputs": [
        {
          "internalType": "uint256",
          "name": "",
          "type": "uint256"
        }
      ],
      "stateMutability": "view",
      "type": "function"
    },
    {
      "inputs": [
        {
          "internalType": "address",
          "name": "",
          "type": "address"
        }
      ],
      "name": "pleinBet",
      "outputs": [
        {
          "internalType": "uint256",
          "name": "",
          "type": "uint256"
        }
      ],
      "stateMutability": "view",
      "type": "function"
    },
    {
      "inputs": [
        {
          "internalType": "address",
          "name": "",
          "type": "address"
        }
      ],
      "name": "pleinBetAmount",
      "outputs": [
        {
          "internalType": "uint256",
          "name": "",
          "type": "uint256"
        }
      ],
      "stateMutability": "view",
      "type": "function"
    },
    {
      "inputs": [
        {
          "internalType": "address",
          "name": "",
          "type": "address"
        }
      ],
      "name": "pleinBetBlockHeight",
      "outputs": [
        {
          "internalType": "uint256",
          "name": "",
          "type": "uint256"
        }
      ],
      "stateMutability": "view",
      "type": "function"
    },
    {
      "inputs": [
        {
          "internalType": "address",
          "name": "",
          "type": "address"
        }
      ],
      "name": "redBlackAmount",
      "outputs": [
        {
          "internalType": "uint256",
          "name": "",
          "type": "uint256"
        }
      ],
      "stateMutability": "view",
      "type": "function"
    },
    {
      "inputs": [
        {
          "internalType": "address",
          "name": "",
          "type": "address"
        }
      ],
      "name": "redBlackBlockHeight",
      "outputs": [
        {
          "internalType": "uint256",
          "name": "",
          "type": "uint256"
        }
      ],
      "stateMutability": "view",
      "type": "function"
    },
    {
      "inputs": [
        {
          "internalType": "address",
          "name": "",
          "type": "address"
        }
      ],
      "name": "redblackBet",
      "outputs": [
        {
          "internalType": "enum Casino.RedBlack",
          "name": "",
          "type": "uint8"
        }
      ],
      "stateMutability": "view",
      "type": "function"
    },
    {
      "inputs": [
        {
          "internalType": "uint256",
          "name": "bet",
          "type": "uint256"
        },
        {
          "internalType": "uint256",
          "name": "betAmount",
          "type": "uint256"
        }
      ],
      "name": "setPleinBet",
      "outputs": [],
      "stateMutability": "nonpayable",
      "type": "function"
    },
    {
      "inputs": [
        {
          "internalType": "uint8",
          "name": "bet",
          "type": "uint8"
        },
        {
          "internalType": "uint256",
          "name": "betAmount",
          "type": "uint256"
        }
      ],
      "name": "setRedBlack",
      "outputs": [],
      "stateMutability": "nonpayable",
      "type": "function"
    },
    {
      "inputs": [
        {
          "internalType": "uint256",
          "name": "amount",
          "type": "uint256"
        }
      ],
      "name": "withdraw",
      "outputs": [
        {
          "internalType": "bool",
          "name": "",
          "type": "bool"
        }
      ],
      "stateMutability": "payable",
      "type": "function"
    },
    {
      "stateMutability": "payable",
      "type": "receive"
    }
  ],
  "bytecode": "0x6080604052600160008190555033600960006101000a81548173ffffffffffffffffffffffffffffffffffffffff021916908373ffffffffffffffffffffffffffffffffffffffff1602179055503460086000600960009054906101000a900473ffffffffffffffffffffffffffffffffffffffff1673ffffffffffffffffffffffffffffffffffffffff1673ffffffffffffffffffffffffffffffffffffffff1681526020019081526020016000206000828254620000c0919062000261565b92505081905550620000d7620000de60201b60201c565b506200036a565b600080604051806102400160405280600160ff168152602001600360ff168152602001600560ff168152602001600760ff168152602001600960ff168152602001600c60ff168152602001600e60ff168152602001601060ff168152602001601260ff168152602001601360ff168152602001601560ff168152602001601760ff168152602001601960ff168152602001601b60ff168152602001601e60ff168152602001602060ff168152602001602260ff168152602001602460ff16815250905060005b60128110156200021f576001806000848460128110620001c957620001c8620002be565b5b602002015160ff16815260200190815260200160002060006101000a81548160ff02191690836001811115620002045762000203620002ed565b5b0217905550808062000216906200031c565b915050620001a4565b50600191505090565b6000819050919050565b7f4e487b7100000000000000000000000000000000000000000000000000000000600052601160045260246000fd5b60006200026e8262000228565b91506200027b8362000228565b9250827fffffffffffffffffffffffffffffffffffffffffffffffffffffffffffffffff03821115620002b357620002b262000232565b5b828201905092915050565b7f4e487b7100000000000000000000000000000000000000000000000000000000600052603260045260246000fd5b7f4e487b7100000000000000000000000000000000000000000000000000000000600052602160045260246000fd5b6000620003298262000228565b91507fffffffffffffffffffffffffffffffffffffffffffffffffffffffffffffffff8214156200035f576200035e62000232565b5b600182019050919050565b612288806200037a6000396000f3fe6080604052600436106101025760003560e01c8063aeccded911610095578063e0cb8a8111610064578063e0cb8a8114610423578063e40a647c1461044e578063f442eb1f14610465578063fe41871e146104a2578063ffb812d4146104df576101ad565b8063aeccded914610343578063cd315fe614610380578063ceb20371146103bd578063d3d9d112146103e6576101ad565b80636d101ebf116100d15780636d101ebf146102735780636f7dab0a146102b0578063757069a1146102ed57806376cdb03b14610318576101ad565b80630864270a146101b2578063162d9595146101c95780632e1a7d4d146102065780634e33f83b14610236576101ad565b366101ad5734600860003373ffffffffffffffffffffffffffffffffffffffff1673ffffffffffffffffffffffffffffffffffffffff168152602001908152602001600020600082825461015691906119b6565b925050819055503373ffffffffffffffffffffffffffffffffffffffff167f8fe10ae416f22f5e5220b0018a6c1d4ff534d6aa3a471f2a20cb7747fe63e5b9346040516101a39190611a1b565b60405180910390a2005b600080fd5b3480156101be57600080fd5b506101c7610508565b005b3480156101d557600080fd5b506101f060048036038101906101eb9190611a99565b610791565b6040516101fd9190611a1b565b60405180910390f35b610220600480360381019061021b9190611af2565b6107a9565b60405161022d9190611b3a565b60405180910390f35b34801561024257600080fd5b5061025d60048036038101906102589190611a99565b61099c565b60405161026a9190611a1b565b60405180910390f35b34801561027f57600080fd5b5061029a60048036038101906102959190611a99565b6109b4565b6040516102a79190611a1b565b60405180910390f35b3480156102bc57600080fd5b506102d760048036038101906102d29190611a99565b6109cc565b6040516102e49190611a1b565b60405180910390f35b3480156102f957600080fd5b506103026109e4565b60405161030f9190611a1b565b60405180910390f35b34801561032457600080fd5b5061032d610a3d565b60405161033a9190611b76565b60405180910390f35b34801561034f57600080fd5b5061036a60048036038101906103659190611a99565b610a63565b6040516103779190611a1b565b60405180910390f35b34801561038c57600080fd5b506103a760048036038101906103a29190611a99565b610a7b565b6040516103b49190611c08565b60405180910390f35b3480156103c957600080fd5b506103e460048036038101906103df9190611c5c565b610a9b565b005b3480156103f257600080fd5b5061040d60048036038101906104089190611a99565b610e89565b60405161041a9190611a1b565b60405180910390f35b34801561042f57600080fd5b50610438610ea1565b6040516104459190611a1b565b60405180910390f35b34801561045a57600080fd5b50610463610f0a565b005b34801561047157600080fd5b5061048c60048036038101906104879190611af2565b6111a9565b6040516104999190611c08565b60405180910390f35b3480156104ae57600080fd5b506104c960048036038101906104c49190611c9c565b6111c9565b6040516104d69190611a1b565b60405180910390f35b3480156104eb57600080fd5b5061050660048036038101906105019190611cc9565b611396565b005b6000801b600660003373ffffffffffffffffffffffffffffffffffffffff1673ffffffffffffffffffffffffffffffffffffffff1681526020019081526020016000205440141561058e576040517f08c379a000000000000000000000000000000000000000000000000000000000815260040161058590611d66565b60405180910390fd5b60006105d8600660003373ffffffffffffffffffffffffffffffffffffffff1673ffffffffffffffffffffffffffffffffffffffff16815260200190815260200160002054611796565b9050600760003373ffffffffffffffffffffffffffffffffffffffff1673ffffffffffffffffffffffffffffffffffffffff16815260200190815260200160002054811415610786576023600560003373ffffffffffffffffffffffffffffffffffffffff1673ffffffffffffffffffffffffffffffffffffffff1681526020019081526020016000205461066d9190611d86565b600860003373ffffffffffffffffffffffffffffffffffffffff1673ffffffffffffffffffffffffffffffffffffffff16815260200190815260200160002060008282546106bb91906119b6565b925050819055506023600560003373ffffffffffffffffffffffffffffffffffffffff1673ffffffffffffffffffffffffffffffffffffffff1681526020019081526020016000205461070e9190611d86565b60086000600960009054906101000a900473ffffffffffffffffffffffffffffffffffffffff1673ffffffffffffffffffffffffffffffffffffffff1673ffffffffffffffffffffffffffffffffffffffff168152602001908152602001600020600082825461077e9190611de0565b925050819055505b61078e6117b5565b50565b60066020528060005260406000206000915090505481565b6000600260005414156107f1576040517f08c379a00000000000000000000000000000000000000000000000000000000081526004016107e890611e60565b60405180910390fd5b600260008190555081600860003373ffffffffffffffffffffffffffffffffffffffff1673ffffffffffffffffffffffffffffffffffffffff16815260200190815260200160002054101561087b576040517f08c379a000000000000000000000000000000000000000000000000000000000815260040161087290611ecc565b60405180910390fd5b81600860003373ffffffffffffffffffffffffffffffffffffffff1673ffffffffffffffffffffffffffffffffffffffff16815260200190815260200160002060008282546108ca9190611de0565b9250508190555060003373ffffffffffffffffffffffffffffffffffffffff16836040516108f790611f1d565b60006040518083038185875af1925050503d8060008114610934576040519150601f19603f3d011682016040523d82523d6000602084013e610939565b606091505b505090503373ffffffffffffffffffffffffffffffffffffffff167feaff4b37086828766ad3268786972c0cd24259d4c87a80f9d3963a3c3d999b0d846040516109839190611a1b565b60405180910390a2809150506001600081905550919050565b60086020528060005260406000206000915090505481565b60056020528060005260406000206000915090505481565b60036020528060005260406000206000915090505481565b600080600660003373ffffffffffffffffffffffffffffffffffffffff1673ffffffffffffffffffffffffffffffffffffffff1681526020019081526020016000205414610a355760019050610a3a565b600090505b90565b600960009054906101000a900473ffffffffffffffffffffffffffffffffffffffff1681565b60076020528060005260406000206000915090505481565b60046020528060005260406000206000915054906101000a900460ff1681565b8080600860003373ffffffffffffffffffffffffffffffffffffffff1673ffffffffffffffffffffffffffffffffffffffff168152602001908152602001600020541015610b1e576040517f08c379a0000000000000000000000000000000000000000000000000000000008152600401610b1590611f7e565b60405180910390fd5b60086000600960009054906101000a900473ffffffffffffffffffffffffffffffffffffffff1673ffffffffffffffffffffffffffffffffffffffff1673ffffffffffffffffffffffffffffffffffffffff16815260200190815260200160002054821115610bc2576040517f08c379a0000000000000000000000000000000000000000000000000000000008152600401610bb990611fea565b60405180910390fd5b6000600360003373ffffffffffffffffffffffffffffffffffffffff1673ffffffffffffffffffffffffffffffffffffffff1681526020019081526020016000205414610c44576040517f08c379a0000000000000000000000000000000000000000000000000000000008152600401610c3b90612056565b60405180910390fd5b60008360ff166001811115610c5c57610c5b611b91565b5b9050600143610c6b91906119b6565b600360003373ffffffffffffffffffffffffffffffffffffffff1673ffffffffffffffffffffffffffffffffffffffff1681526020019081526020016000208190555082600860003373ffffffffffffffffffffffffffffffffffffffff1673ffffffffffffffffffffffffffffffffffffffff1681526020019081526020016000206000828254610cfd9190611de0565b925050819055508260086000600960009054906101000a900473ffffffffffffffffffffffffffffffffffffffff1673ffffffffffffffffffffffffffffffffffffffff1673ffffffffffffffffffffffffffffffffffffffff1681526020019081526020016000206000828254610d7591906119b6565b9250508190555082600260003373ffffffffffffffffffffffffffffffffffffffff1673ffffffffffffffffffffffffffffffffffffffff1681526020019081526020016000208190555080600460003373ffffffffffffffffffffffffffffffffffffffff1673ffffffffffffffffffffffffffffffffffffffff16815260200190815260200160002060006101000a81548160ff02191690836001811115610e2257610e21611b91565b5b02179055503373ffffffffffffffffffffffffffffffffffffffff167f668fddc38c678055d0b51e59259c3371b9f669a4788b08c0f9439b6a5d060ebd84600143610e6d91906119b6565b604051610e7b9291906120c2565b60405180910390a250505050565b60026020528060005260406000206000915090505481565b600060086000600960009054906101000a900473ffffffffffffffffffffffffffffffffffffffff1673ffffffffffffffffffffffffffffffffffffffff1673ffffffffffffffffffffffffffffffffffffffff16815260200190815260200160002054905090565b6000801b600360003373ffffffffffffffffffffffffffffffffffffffff1673ffffffffffffffffffffffffffffffffffffffff16815260200190815260200160002054401415610f90576040517f08c379a0000000000000000000000000000000000000000000000000000000008152600401610f8790611d66565b60405180910390fd5b6000610fda600360003373ffffffffffffffffffffffffffffffffffffffff1673ffffffffffffffffffffffffffffffffffffffff16815260200190815260200160002054611796565b9050600081111561119e576000600460003373ffffffffffffffffffffffffffffffffffffffff1673ffffffffffffffffffffffffffffffffffffffff16815260200190815260200160002060009054906101000a900460ff1690506000600260003373ffffffffffffffffffffffffffffffffffffffff1673ffffffffffffffffffffffffffffffffffffffff168152602001908152602001600020549050600061108584611884565b905082600181111561109a57611099611b91565b5b8160018111156110ad576110ac611b91565b5b141561119a576002826110c09190611d86565b600860003373ffffffffffffffffffffffffffffffffffffffff1673ffffffffffffffffffffffffffffffffffffffff168152602001908152602001600020600082825461110e91906119b6565b925050819055506002826111229190611d86565b60086000600960009054906101000a900473ffffffffffffffffffffffffffffffffffffffff1673ffffffffffffffffffffffffffffffffffffffff1673ffffffffffffffffffffffffffffffffffffffff16815260200190815260200160002060008282546111929190611de0565b925050819055505b5050505b6111a66118ae565b50565b60016020528060005260406000206000915054906101000a900460ff1681565b6000808260ff1614156112ab576000801b600360003373ffffffffffffffffffffffffffffffffffffffff1673ffffffffffffffffffffffffffffffffffffffff1681526020019081526020016000205440141561125c576040517f08c379a000000000000000000000000000000000000000000000000000000000815260040161125390611d66565b60405180910390fd5b6112a4600360003373ffffffffffffffffffffffffffffffffffffffff1673ffffffffffffffffffffffffffffffffffffffff16815260200190815260200160002054611796565b9050611391565b60018260ff16141561138c576000801b600660003373ffffffffffffffffffffffffffffffffffffffff1673ffffffffffffffffffffffffffffffffffffffff1681526020019081526020016000205440141561133d576040517f08c379a000000000000000000000000000000000000000000000000000000000815260040161133490611d66565b60405180910390fd5b611385600660003373ffffffffffffffffffffffffffffffffffffffff1673ffffffffffffffffffffffffffffffffffffffff16815260200190815260200160002054611796565b9050611391565b600090505b919050565b8080600860003373ffffffffffffffffffffffffffffffffffffffff1673ffffffffffffffffffffffffffffffffffffffff168152602001908152602001600020541015611419576040517f08c379a000000000000000000000000000000000000000000000000000000000815260040161141090611f7e565b60405180910390fd5b60086000600960009054906101000a900473ffffffffffffffffffffffffffffffffffffffff1673ffffffffffffffffffffffffffffffffffffffff1673ffffffffffffffffffffffffffffffffffffffff168152602001908152602001600020546023836114889190611d86565b11156114c9576040517f08c379a00000000000000000000000000000000000000000000000000000000081526004016114c090611fea565b60405180910390fd5b6000600660003373ffffffffffffffffffffffffffffffffffffffff1673ffffffffffffffffffffffffffffffffffffffff168152602001908152602001600020541461154b576040517f08c379a000000000000000000000000000000000000000000000000000000000815260040161154290612056565b60405180910390fd5b602483111561158f576040517f08c379a00000000000000000000000000000000000000000000000000000000081526004016115869061214a565b60405180910390fd5b82600760003373ffffffffffffffffffffffffffffffffffffffff1673ffffffffffffffffffffffffffffffffffffffff1681526020019081526020016000208190555081600560003373ffffffffffffffffffffffffffffffffffffffff1673ffffffffffffffffffffffffffffffffffffffff1681526020019081526020016000208190555060014361162491906119b6565b600660003373ffffffffffffffffffffffffffffffffffffffff1673ffffffffffffffffffffffffffffffffffffffff1681526020019081526020016000208190555081600860003373ffffffffffffffffffffffffffffffffffffffff1673ffffffffffffffffffffffffffffffffffffffff16815260200190815260200160002060008282546116b69190611de0565b925050819055508160086000600960009054906101000a900473ffffffffffffffffffffffffffffffffffffffff1673ffffffffffffffffffffffffffffffffffffffff1673ffffffffffffffffffffffffffffffffffffffff168152602001908152602001600020600082825461172e91906119b6565b925050819055503373ffffffffffffffffffffffffffffffffffffffff167f668fddc38c678055d0b51e59259c3371b9f669a4788b08c0f9439b6a5d060ebd8360014361177b91906119b6565b6040516117899291906121b6565b60405180910390a2505050565b600080824060001c90506025816117ad9190612221565b915050919050565b6000600560003373ffffffffffffffffffffffffffffffffffffffff1673ffffffffffffffffffffffffffffffffffffffff168152602001908152602001600020819055506000600660003373ffffffffffffffffffffffffffffffffffffffff1673ffffffffffffffffffffffffffffffffffffffff168152602001908152602001600020819055503373ffffffffffffffffffffffffffffffffffffffff167f5c5242c86e1c99f381866c8c3d6542c0f9691ec890edfe6699def7dafa9a34f660405160405180910390a2565b60006001600083815260200190815260200160002060009054906101000a900460ff169050919050565b3373ffffffffffffffffffffffffffffffffffffffff167f5c5242c86e1c99f381866c8c3d6542c0f9691ec890edfe6699def7dafa9a34f660405160405180910390a26000600260003373ffffffffffffffffffffffffffffffffffffffff1673ffffffffffffffffffffffffffffffffffffffff168152602001908152602001600020819055506000600360003373ffffffffffffffffffffffffffffffffffffffff1673ffffffffffffffffffffffffffffffffffffffff16815260200190815260200160002081905550565b6000819050919050565b7f4e487b7100000000000000000000000000000000000000000000000000000000600052601160045260246000fd5b60006119c18261197d565b91506119cc8361197d565b9250827fffffffffffffffffffffffffffffffffffffffffffffffffffffffffffffffff03821115611a0157611a00611987565b5b828201905092915050565b611a158161197d565b82525050565b6000602082019050611a306000830184611a0c565b92915050565b600080fd5b600073ffffffffffffffffffffffffffffffffffffffff82169050919050565b6000611a6682611a3b565b9050919050565b611a7681611a5b565b8114611a8157600080fd5b50565b600081359050611a9381611a6d565b92915050565b600060208284031215611aaf57611aae611a36565b5b6000611abd84828501611a84565b91505092915050565b611acf8161197d565b8114611ada57600080fd5b50565b600081359050611aec81611ac6565b92915050565b600060208284031215611b0857611b07611a36565b5b6000611b1684828501611add565b91505092915050565b60008115159050919050565b611b3481611b1f565b82525050565b6000602082019050611b4f6000830184611b2b565b92915050565b6000611b6082611a3b565b9050919050565b611b7081611b55565b82525050565b6000602082019050611b8b6000830184611b67565b92915050565b7f4e487b7100000000000000000000000000000000000000000000000000000000600052602160045260246000fd5b60028110611bd157611bd0611b91565b5b50565b6000819050611be282611bc0565b919050565b6000611bf282611bd4565b9050919050565b611c0281611be7565b82525050565b6000602082019050611c1d6000830184611bf9565b92915050565b600060ff82169050919050565b611c3981611c23565b8114611c4457600080fd5b50565b600081359050611c5681611c30565b92915050565b60008060408385031215611c7357611c72611a36565b5b6000611c8185828601611c47565b9250506020611c9285828601611add565b9150509250929050565b600060208284031215611cb257611cb1611a36565b5b6000611cc084828501611c47565b91505092915050565b60008060408385031215611ce057611cdf611a36565b5b6000611cee85828601611add565b9250506020611cff85828601611add565b9150509250929050565b600082825260208201905092915050565b7f506c65617365206d616b65206120626574206669727374000000000000000000600082015250565b6000611d50601783611d09565b9150611d5b82611d1a565b602082019050919050565b60006020820190508181036000830152611d7f81611d43565b9050919050565b6000611d918261197d565b9150611d9c8361197d565b9250817fffffffffffffffffffffffffffffffffffffffffffffffffffffffffffffffff0483118215151615611dd557611dd4611987565b5b828202905092915050565b6000611deb8261197d565b9150611df68361197d565b925082821015611e0957611e08611987565b5b828203905092915050565b7f5265656e7472616e637947756172643a207265656e7472616e742063616c6c00600082015250565b6000611e4a601f83611d09565b9150611e5582611e14565b602082019050919050565b60006020820190508181036000830152611e7981611e3d565b9050919050565b7f4e6f7420656e6f7567682066756e647321000000000000000000000000000000600082015250565b6000611eb6601183611d09565b9150611ec182611e80565b602082019050919050565b60006020820190508181036000830152611ee581611ea9565b9050919050565b600081905092915050565b50565b6000611f07600083611eec565b9150611f1282611ef7565b600082019050919050565b6000611f2882611efa565b9150819050919050565b7f506c6561736520746f7020757020796f75722066756e64732100000000000000600082015250565b6000611f68601983611d09565b9150611f7382611f32565b602082019050919050565b60006020820190508181036000830152611f9781611f5b565b9050919050565b7f42657420616d6f756e7420697320746f6f206869676800000000000000000000600082015250565b6000611fd4601683611d09565b9150611fdf82611f9e565b602082019050919050565b6000602082019050818103600083015261200381611fc7565b9050919050565b7f46696e69736820796f75722072756e6e696e672067616d652066697273742100600082015250565b6000612040601f83611d09565b915061204b8261200a565b602082019050919050565b6000602082019050818103600083015261206f81612033565b9050919050565b7f5265644e6f697200000000000000000000000000000000000000000000000000600082015250565b60006120ac600783611d09565b91506120b782612076565b602082019050919050565b60006060820190506120d76000830185611a0c565b6120e46020830184611a0c565b81810360408301526120f58161209f565b90509392505050565b7f4261642076616c75650000000000000000000000000000000000000000000000600082015250565b6000612134600983611d09565b915061213f826120fe565b602082019050919050565b6000602082019050818103600083015261216381612127565b9050919050565b7f506c65696e000000000000000000000000000000000000000000000000000000600082015250565b60006121a0600583611d09565b91506121ab8261216a565b602082019050919050565b60006060820190506121cb6000830185611a0c565b6121d86020830184611a0c565b81810360408301526121e981612193565b90509392505050565b7f4e487b7100000000000000000000000000000000000000000000000000000000600052601260045260246000fd5b600061222c8261197d565b91506122378361197d565b925082612247576122466121f2565b5b82820690509291505056fea2646970667358221220e5d09c89686462a57562455286f5caf3aa1c8b351ae697322cba9885fab1532964736f6c63430008090033",
  "linkReferences": {},
  "deployedLinkReferences": {}
}