{
  "_format": "hh-sol-artifact-1",
  "contractName": "Casino",
  "sourceName": "contracts/Casino.sol",
  "abi": [
    {
      "inputs": [],
      "stateMutability": "payable",
      "type": "constructor"
    },
    {
      "anonymous": false,
      "inputs": [
        {
          "indexed": true,
          "internalType": "address",
          "name": "player",
          "type": "address"
        },
        {
          "indexed": false,
          "internalType": "uint256",
          "name": "amount",
          "type": "uint256"
        },
        {
          "indexed": false,
          "internalType": "uint256",
          "name": "blockNumber",
          "type": "uint256"
        },
        {
          "indexed": false,
          "internalType": "string",
          "name": "gameType",
          "type": "string"
        }
      ],
      "name": "BetMade",
      "type": "event"
    },
    {
      "anonymous": false,
      "inputs": [
        {
          "indexed": true,
          "internalType": "address",
          "name": "player",
          "type": "address"
        },
        {
          "indexed": false,
          "internalType": "uint256",
          "name": "amount",
          "type": "uint256"
        }
      ],
      "name": "FundsAdded",
      "type": "event"
    },
    {
      "anonymous": false,
      "inputs": [
        {
          "indexed": true,
          "internalType": "address",
          "name": "player",
          "type": "address"
        },
        {
          "indexed": false,
          "internalType": "uint256",
          "name": "amount",
          "type": "uint256"
        }
      ],
      "name": "FundsWithdrawn",
      "type": "event"
    },
    {
      "anonymous": false,
      "inputs": [
        {
          "indexed": true,
          "internalType": "address",
          "name": "player",
          "type": "address"
        }
      ],
      "name": "GameReset",
      "type": "event"
    },
    {
      "anonymous": false,
      "inputs": [
        {
          "indexed": true,
          "internalType": "address",
          "name": "player",
          "type": "address"
        },
        {
          "indexed": false,
          "internalType": "uint256",
          "name": "betAmount",
          "type": "uint256"
        },
        {
          "indexed": false,
          "internalType": "bool",
          "name": "won",
          "type": "bool"
        }
      ],
      "name": "GameResult",
      "type": "event"
    },
    {
      "inputs": [
        {
          "internalType": "uint256",
          "name": "",
          "type": "uint256"
        }
      ],
      "name": "colorValues",
      "outputs": [
        {
          "internalType": "enum Casino.RedBlack",
          "name": "",
          "type": "uint8"
        }
      ],
      "stateMutability": "view",
      "type": "function"
    },
    {
      "inputs": [],
      "name": "contractFunds",
      "outputs": [
        {
          "internalType": "uint256",
          "name": "",
          "type": "uint256"
        }
      ],
      "stateMutability": "view",
      "type": "function"
    },
    {
      "inputs": [
        {
          "internalType": "uint8",
          "name": "gamemode",
          "type": "uint8"
        }
      ],
      "name": "getGameResult",
      "outputs": [
        {
          "internalType": "uint256",
          "name": "",
          "type": "uint256"
        }
      ],
      "stateMutability": "view",
      "type": "function"
    },
    {
      "inputs": [],
      "name": "getPleinPayout",
      "outputs": [],
      "stateMutability": "nonpayable",
      "type": "function"
    },
    {
      "inputs": [],
      "name": "getRedBlackPayout",
      "outputs": [],
      "stateMutability": "nonpayable",
      "type": "function"
    },
    {
      "inputs": [
        {
          "internalType": "address",
          "name": "",
          "type": "address"
        }
      ],
      "name": "playerBalance",
      "outputs": [
        {
          "internalType": "uint256",
          "name": "",
          "type": "uint256"
        }
      ],
      "stateMutability": "view",
      "type": "function"
    },
    {
      "inputs": [
        {
          "internalType": "address",
          "name": "",
          "type": "address"
        }
      ],
      "name": "pleinBet",
      "outputs": [
        {
          "internalType": "uint256",
          "name": "",
          "type": "uint256"
        }
      ],
      "stateMutability": "view",
      "type": "function"
    },
    {
      "inputs": [
        {
          "internalType": "address",
          "name": "",
          "type": "address"
        }
      ],
      "name": "pleinBetAmount",
      "outputs": [
        {
          "internalType": "uint256",
          "name": "",
          "type": "uint256"
        }
      ],
      "stateMutability": "view",
      "type": "function"
    },
    {
      "inputs": [
        {
          "internalType": "address",
          "name": "",
          "type": "address"
        }
      ],
      "name": "pleinBetBlockHeight",
      "outputs": [
        {
          "internalType": "uint256",
          "name": "",
          "type": "uint256"
        }
      ],
      "stateMutability": "view",
      "type": "function"
    },
    {
      "inputs": [
        {
          "internalType": "address",
          "name": "",
          "type": "address"
        }
      ],
      "name": "redBlackAmount",
      "outputs": [
        {
          "internalType": "uint256",
          "name": "",
          "type": "uint256"
        }
      ],
      "stateMutability": "view",
      "type": "function"
    },
    {
      "inputs": [
        {
          "internalType": "address",
          "name": "",
          "type": "address"
        }
      ],
      "name": "redBlackBlockHeight",
      "outputs": [
        {
          "internalType": "uint256",
          "name": "",
          "type": "uint256"
        }
      ],
      "stateMutability": "view",
      "type": "function"
    },
    {
      "inputs": [
        {
          "internalType": "address",
          "name": "",
          "type": "address"
        }
      ],
      "name": "redblackBet",
      "outputs": [
        {
          "internalType": "enum Casino.RedBlack",
          "name": "",
          "type": "uint8"
        }
      ],
      "stateMutability": "view",
      "type": "function"
    },
    {
      "inputs": [
        {
          "internalType": "uint256",
          "name": "bet",
          "type": "uint256"
        },
        {
          "internalType": "uint256",
          "name": "betAmount",
          "type": "uint256"
        }
      ],
      "name": "setPleinBet",
      "outputs": [],
      "stateMutability": "nonpayable",
      "type": "function"
    },
    {
      "inputs": [
        {
          "internalType": "uint8",
          "name": "bet",
          "type": "uint8"
        },
        {
          "internalType": "uint256",
          "name": "betAmount",
          "type": "uint256"
        }
      ],
      "name": "setRedBlack",
      "outputs": [],
      "stateMutability": "nonpayable",
      "type": "function"
    },
    {
      "inputs": [
        {
          "internalType": "uint256",
          "name": "amount",
          "type": "uint256"
        }
      ],
      "name": "withdraw",
      "outputs": [
        {
          "internalType": "bool",
          "name": "",
          "type": "bool"
        }
      ],
      "stateMutability": "payable",
      "type": "function"
    },
    {
      "stateMutability": "payable",
      "type": "receive"
    }
  ],
  "bytecode": "0x60806040526000600955600160008190555034600981905550620000286200002f60201b60201c565b506200025e565b600080604051806102400160405280600160ff168152602001600360ff168152602001600560ff168152602001600760ff168152602001600960ff168152602001600c60ff168152602001600e60ff168152602001601060ff168152602001601260ff168152602001601360ff168152602001601560ff168152602001601760ff168152602001601960ff168152602001601b60ff168152602001601e60ff168152602001602060ff168152602001602260ff168152602001602460ff16815250905060005b6012811015620001705760018060008484601281106200011a576200011962000179565b5b602002015160ff16815260200190815260200160002060006101000a81548160ff02191690836001811115620001555762000154620001a8565b5b02179055508080620001679062000210565b915050620000f5565b50600191505090565b7f4e487b7100000000000000000000000000000000000000000000000000000000600052603260045260246000fd5b7f4e487b7100000000000000000000000000000000000000000000000000000000600052602160045260246000fd5b7f4e487b7100000000000000000000000000000000000000000000000000000000600052601160045260246000fd5b6000819050919050565b60006200021d8262000206565b91507fffffffffffffffffffffffffffffffffffffffffffffffffffffffffffffffff821415620002535762000252620001d7565b5b600182019050919050565b611ec4806200026e6000396000f3fe6080604052600436106100ec5760003560e01c8063bdcc778f1161008a578063e40a647c11610059578063e40a647c146103e2578063f442eb1f146103f9578063fe41871e14610436578063ffb812d41461047357610197565b8063bdcc778f14610314578063cd315fe61461033f578063ceb203711461037c578063d3d9d112146103a557610197565b80634e33f83b116100c65780634e33f83b146102205780636d101ebf1461025d5780636f7dab0a1461029a578063aeccded9146102d757610197565b80630864270a1461019c578063162d9595146101b35780632e1a7d4d146101f057610197565b366101975734600860003373ffffffffffffffffffffffffffffffffffffffff1673ffffffffffffffffffffffffffffffffffffffff1681526020019081526020016000206000828254610140919061162e565b925050819055503373ffffffffffffffffffffffffffffffffffffffff167f8fe10ae416f22f5e5220b0018a6c1d4ff534d6aa3a471f2a20cb7747fe63e5b93460405161018d9190611693565b60405180910390a2005b600080fd5b3480156101a857600080fd5b506101b161049c565b005b3480156101bf57600080fd5b506101da60048036038101906101d59190611711565b6106c6565b6040516101e79190611693565b60405180910390f35b61020a6004803603810190610205919061176a565b6106de565b60405161021791906117b2565b60405180910390f35b34801561022c57600080fd5b5061024760048036038101906102429190611711565b6108d1565b6040516102549190611693565b60405180910390f35b34801561026957600080fd5b50610284600480360381019061027f9190611711565b6108e9565b6040516102919190611693565b60405180910390f35b3480156102a657600080fd5b506102c160048036038101906102bc9190611711565b610901565b6040516102ce9190611693565b60405180910390f35b3480156102e357600080fd5b506102fe60048036038101906102f99190611711565b610919565b60405161030b9190611693565b60405180910390f35b34801561032057600080fd5b50610329610931565b6040516103369190611693565b60405180910390f35b34801561034b57600080fd5b5061036660048036038101906103619190611711565b610937565b6040516103739190611844565b60405180910390f35b34801561038857600080fd5b506103a3600480360381019061039e9190611898565b610957565b005b3480156103b157600080fd5b506103cc60048036038101906103c79190611711565b610c87565b6040516103d99190611693565b60405180910390f35b3480156103ee57600080fd5b506103f7610c9f565b005b34801561040557600080fd5b50610420600480360381019061041b919061176a565b610edf565b60405161042d9190611844565b60405180910390f35b34801561044257600080fd5b5061045d600480360381019061045891906118d8565b610eff565b60405161046a9190611693565b60405180910390f35b34801561047f57600080fd5b5061049a60048036038101906104959190611905565b6110cc565b005b6000801b600660003373ffffffffffffffffffffffffffffffffffffffff1673ffffffffffffffffffffffffffffffffffffffff16815260200190815260200160002054401415610522576040517f08c379a0000000000000000000000000000000000000000000000000000000008152600401610519906119a2565b60405180910390fd5b600061056c600660003373ffffffffffffffffffffffffffffffffffffffff1673ffffffffffffffffffffffffffffffffffffffff1681526020019081526020016000205461140e565b9050600760003373ffffffffffffffffffffffffffffffffffffffff1673ffffffffffffffffffffffffffffffffffffffff168152602001908152602001600020548114156106bb576023600560003373ffffffffffffffffffffffffffffffffffffffff1673ffffffffffffffffffffffffffffffffffffffff1681526020019081526020016000205461060191906119c2565b600860003373ffffffffffffffffffffffffffffffffffffffff1673ffffffffffffffffffffffffffffffffffffffff168152602001908152602001600020600082825461064f919061162e565b925050819055506023600560003373ffffffffffffffffffffffffffffffffffffffff1673ffffffffffffffffffffffffffffffffffffffff168152602001908152602001600020546106a291906119c2565b600960008282546106b39190611a1c565b925050819055505b6106c361142d565b50565b60066020528060005260406000206000915090505481565b600060026000541415610726576040517f08c379a000000000000000000000000000000000000000000000000000000000815260040161071d90611a9c565b60405180910390fd5b600260008190555081600860003373ffffffffffffffffffffffffffffffffffffffff1673ffffffffffffffffffffffffffffffffffffffff1681526020019081526020016000205410156107b0576040517f08c379a00000000000000000000000000000000000000000000000000000000081526004016107a790611b08565b60405180910390fd5b81600860003373ffffffffffffffffffffffffffffffffffffffff1673ffffffffffffffffffffffffffffffffffffffff16815260200190815260200160002060008282546107ff9190611a1c565b9250508190555060003373ffffffffffffffffffffffffffffffffffffffff168360405161082c90611b59565b60006040518083038185875af1925050503d8060008114610869576040519150601f19603f3d011682016040523d82523d6000602084013e61086e565b606091505b505090503373ffffffffffffffffffffffffffffffffffffffff167feaff4b37086828766ad3268786972c0cd24259d4c87a80f9d3963a3c3d999b0d846040516108b89190611693565b60405180910390a2809150506001600081905550919050565b60086020528060005260406000206000915090505481565b60056020528060005260406000206000915090505481565b60036020528060005260406000206000915090505481565b60076020528060005260406000206000915090505481565b60095481565b60046020528060005260406000206000915054906101000a900460ff1681565b8080600860003373ffffffffffffffffffffffffffffffffffffffff1673ffffffffffffffffffffffffffffffffffffffff1681526020019081526020016000205410156109da576040517f08c379a00000000000000000000000000000000000000000000000000000000081526004016109d190611bba565b60405180910390fd5b600954821115610a1f576040517f08c379a0000000000000000000000000000000000000000000000000000000008152600401610a1690611c26565b60405180910390fd5b6000600360003373ffffffffffffffffffffffffffffffffffffffff1673ffffffffffffffffffffffffffffffffffffffff1681526020019081526020016000205414610aa1576040517f08c379a0000000000000000000000000000000000000000000000000000000008152600401610a9890611c92565b60405180910390fd5b60008360ff166001811115610ab957610ab86117cd565b5b9050600143610ac8919061162e565b600360003373ffffffffffffffffffffffffffffffffffffffff1673ffffffffffffffffffffffffffffffffffffffff1681526020019081526020016000208190555082600860003373ffffffffffffffffffffffffffffffffffffffff1673ffffffffffffffffffffffffffffffffffffffff1681526020019081526020016000206000828254610b5a9190611a1c565b925050819055508260096000828254610b73919061162e565b9250508190555082600260003373ffffffffffffffffffffffffffffffffffffffff1673ffffffffffffffffffffffffffffffffffffffff1681526020019081526020016000208190555080600460003373ffffffffffffffffffffffffffffffffffffffff1673ffffffffffffffffffffffffffffffffffffffff16815260200190815260200160002060006101000a81548160ff02191690836001811115610c2057610c1f6117cd565b5b02179055503373ffffffffffffffffffffffffffffffffffffffff167f668fddc38c678055d0b51e59259c3371b9f669a4788b08c0f9439b6a5d060ebd84600143610c6b919061162e565b604051610c79929190611cfe565b60405180910390a250505050565b60026020528060005260406000206000915090505481565b6000801b600360003373ffffffffffffffffffffffffffffffffffffffff1673ffffffffffffffffffffffffffffffffffffffff16815260200190815260200160002054401415610d25576040517f08c379a0000000000000000000000000000000000000000000000000000000008152600401610d1c906119a2565b60405180910390fd5b6000610d6f600360003373ffffffffffffffffffffffffffffffffffffffff1673ffffffffffffffffffffffffffffffffffffffff1681526020019081526020016000205461140e565b90506000811115610ed4576000600460003373ffffffffffffffffffffffffffffffffffffffff1673ffffffffffffffffffffffffffffffffffffffff16815260200190815260200160002060009054906101000a900460ff1690506000600260003373ffffffffffffffffffffffffffffffffffffffff1673ffffffffffffffffffffffffffffffffffffffff1681526020019081526020016000205490506000610e1a846114fc565b9050826001811115610e2f57610e2e6117cd565b5b816001811115610e4257610e416117cd565b5b1415610ed057600282610e5591906119c2565b600860003373ffffffffffffffffffffffffffffffffffffffff1673ffffffffffffffffffffffffffffffffffffffff1681526020019081526020016000206000828254610ea3919061162e565b92505081905550600282610eb791906119c2565b60096000828254610ec89190611a1c565b925050819055505b5050505b610edc611526565b50565b60016020528060005260406000206000915054906101000a900460ff1681565b6000808260ff161415610fe1576000801b600360003373ffffffffffffffffffffffffffffffffffffffff1673ffffffffffffffffffffffffffffffffffffffff16815260200190815260200160002054401415610f92576040517f08c379a0000000000000000000000000000000000000000000000000000000008152600401610f89906119a2565b60405180910390fd5b610fda600360003373ffffffffffffffffffffffffffffffffffffffff1673ffffffffffffffffffffffffffffffffffffffff1681526020019081526020016000205461140e565b90506110c7565b60018260ff1614156110c2576000801b600660003373ffffffffffffffffffffffffffffffffffffffff1673ffffffffffffffffffffffffffffffffffffffff16815260200190815260200160002054401415611073576040517f08c379a000000000000000000000000000000000000000000000000000000000815260040161106a906119a2565b60405180910390fd5b6110bb600660003373ffffffffffffffffffffffffffffffffffffffff1673ffffffffffffffffffffffffffffffffffffffff1681526020019081526020016000205461140e565b90506110c7565b600090505b919050565b8080600860003373ffffffffffffffffffffffffffffffffffffffff1673ffffffffffffffffffffffffffffffffffffffff16815260200190815260200160002054101561114f576040517f08c379a000000000000000000000000000000000000000000000000000000000815260040161114690611bba565b60405180910390fd5b60095460238361115f91906119c2565b11156111a0576040517f08c379a000000000000000000000000000000000000000000000000000000000815260040161119790611c26565b60405180910390fd5b6000600660003373ffffffffffffffffffffffffffffffffffffffff1673ffffffffffffffffffffffffffffffffffffffff1681526020019081526020016000205414611222576040517f08c379a000000000000000000000000000000000000000000000000000000000815260040161121990611c92565b60405180910390fd5b6024831115611266576040517f08c379a000000000000000000000000000000000000000000000000000000000815260040161125d90611d86565b60405180910390fd5b82600760003373ffffffffffffffffffffffffffffffffffffffff1673ffffffffffffffffffffffffffffffffffffffff1681526020019081526020016000208190555081600560003373ffffffffffffffffffffffffffffffffffffffff1673ffffffffffffffffffffffffffffffffffffffff168152602001908152602001600020819055506001436112fb919061162e565b600660003373ffffffffffffffffffffffffffffffffffffffff1673ffffffffffffffffffffffffffffffffffffffff1681526020019081526020016000208190555081600860003373ffffffffffffffffffffffffffffffffffffffff1673ffffffffffffffffffffffffffffffffffffffff168152602001908152602001600020600082825461138d9190611a1c565b9250508190555081600960008282546113a6919061162e565b925050819055503373ffffffffffffffffffffffffffffffffffffffff167f668fddc38c678055d0b51e59259c3371b9f669a4788b08c0f9439b6a5d060ebd836001436113f3919061162e565b604051611401929190611df2565b60405180910390a2505050565b600080824060001c90506025816114259190611e5d565b915050919050565b6000600560003373ffffffffffffffffffffffffffffffffffffffff1673ffffffffffffffffffffffffffffffffffffffff168152602001908152602001600020819055506000600660003373ffffffffffffffffffffffffffffffffffffffff1673ffffffffffffffffffffffffffffffffffffffff168152602001908152602001600020819055503373ffffffffffffffffffffffffffffffffffffffff167f5c5242c86e1c99f381866c8c3d6542c0f9691ec890edfe6699def7dafa9a34f660405160405180910390a2565b60006001600083815260200190815260200160002060009054906101000a900460ff169050919050565b3373ffffffffffffffffffffffffffffffffffffffff167f5c5242c86e1c99f381866c8c3d6542c0f9691ec890edfe6699def7dafa9a34f660405160405180910390a26000600260003373ffffffffffffffffffffffffffffffffffffffff1673ffffffffffffffffffffffffffffffffffffffff168152602001908152602001600020819055506000600360003373ffffffffffffffffffffffffffffffffffffffff1673ffffffffffffffffffffffffffffffffffffffff16815260200190815260200160002081905550565b6000819050919050565b7f4e487b7100000000000000000000000000000000000000000000000000000000600052601160045260246000fd5b6000611639826115f5565b9150611644836115f5565b9250827fffffffffffffffffffffffffffffffffffffffffffffffffffffffffffffffff03821115611679576116786115ff565b5b828201905092915050565b61168d816115f5565b82525050565b60006020820190506116a86000830184611684565b92915050565b600080fd5b600073ffffffffffffffffffffffffffffffffffffffff82169050919050565b60006116de826116b3565b9050919050565b6116ee816116d3565b81146116f957600080fd5b50565b60008135905061170b816116e5565b92915050565b600060208284031215611727576117266116ae565b5b6000611735848285016116fc565b91505092915050565b611747816115f5565b811461175257600080fd5b50565b6000813590506117648161173e565b92915050565b6000602082840312156117805761177f6116ae565b5b600061178e84828501611755565b91505092915050565b60008115159050919050565b6117ac81611797565b82525050565b60006020820190506117c760008301846117a3565b92915050565b7f4e487b7100000000000000000000000000000000000000000000000000000000600052602160045260246000fd5b6002811061180d5761180c6117cd565b5b50565b600081905061181e826117fc565b919050565b600061182e82611810565b9050919050565b61183e81611823565b82525050565b60006020820190506118596000830184611835565b92915050565b600060ff82169050919050565b6118758161185f565b811461188057600080fd5b50565b6000813590506118928161186c565b92915050565b600080604083850312156118af576118ae6116ae565b5b60006118bd85828601611883565b92505060206118ce85828601611755565b9150509250929050565b6000602082840312156118ee576118ed6116ae565b5b60006118fc84828501611883565b91505092915050565b6000806040838503121561191c5761191b6116ae565b5b600061192a85828601611755565b925050602061193b85828601611755565b9150509250929050565b600082825260208201905092915050565b7f506c65617365206d616b65206120626574206669727374000000000000000000600082015250565b600061198c601783611945565b915061199782611956565b602082019050919050565b600060208201905081810360008301526119bb8161197f565b9050919050565b60006119cd826115f5565b91506119d8836115f5565b9250817fffffffffffffffffffffffffffffffffffffffffffffffffffffffffffffffff0483118215151615611a1157611a106115ff565b5b828202905092915050565b6000611a27826115f5565b9150611a32836115f5565b925082821015611a4557611a446115ff565b5b828203905092915050565b7f5265656e7472616e637947756172643a207265656e7472616e742063616c6c00600082015250565b6000611a86601f83611945565b9150611a9182611a50565b602082019050919050565b60006020820190508181036000830152611ab581611a79565b9050919050565b7f4e6f7420656e6f7567682066756e647321000000000000000000000000000000600082015250565b6000611af2601183611945565b9150611afd82611abc565b602082019050919050565b60006020820190508181036000830152611b2181611ae5565b9050919050565b600081905092915050565b50565b6000611b43600083611b28565b9150611b4e82611b33565b600082019050919050565b6000611b6482611b36565b9150819050919050565b7f506c6561736520746f7020757020796f75722066756e64732100000000000000600082015250565b6000611ba4601983611945565b9150611baf82611b6e565b602082019050919050565b60006020820190508181036000830152611bd381611b97565b9050919050565b7f42657420616d6f756e7420697320746f6f206869676800000000000000000000600082015250565b6000611c10601683611945565b9150611c1b82611bda565b602082019050919050565b60006020820190508181036000830152611c3f81611c03565b9050919050565b7f46696e69736820796f75722072756e6e696e672067616d652066697273742100600082015250565b6000611c7c601f83611945565b9150611c8782611c46565b602082019050919050565b60006020820190508181036000830152611cab81611c6f565b9050919050565b7f5265644e6f697200000000000000000000000000000000000000000000000000600082015250565b6000611ce8600783611945565b9150611cf382611cb2565b602082019050919050565b6000606082019050611d136000830185611684565b611d206020830184611684565b8181036040830152611d3181611cdb565b90509392505050565b7f4261642076616c75650000000000000000000000000000000000000000000000600082015250565b6000611d70600983611945565b9150611d7b82611d3a565b602082019050919050565b60006020820190508181036000830152611d9f81611d63565b9050919050565b7f506c65696e000000000000000000000000000000000000000000000000000000600082015250565b6000611ddc600583611945565b9150611de782611da6565b602082019050919050565b6000606082019050611e076000830185611684565b611e146020830184611684565b8181036040830152611e2581611dcf565b90509392505050565b7f4e487b7100000000000000000000000000000000000000000000000000000000600052601260045260246000fd5b6000611e68826115f5565b9150611e73836115f5565b925082611e8357611e82611e2e565b5b82820690509291505056fea2646970667358221220f36003226d104960cd90ef4563d5017014da42b935f6870d08fb7a291740971d64736f6c63430008090033",
  "linkReferences": {},
  "deployedLinkReferences": {}
}